{
  "contractName": "SongSquare",
  "abi": [
    {
      "inputs": [],
      "stateMutability": "nonpayable",
      "type": "constructor"
    },
    {
      "anonymous": false,
      "inputs": [
        {
          "indexed": false,
          "internalType": "uint256",
          "name": "id",
          "type": "uint256"
        },
        {
          "indexed": false,
          "internalType": "string",
          "name": "name",
          "type": "string"
        },
        {
          "indexed": false,
          "internalType": "address",
          "name": "artist",
          "type": "address"
        },
        {
          "indexed": false,
          "internalType": "string",
          "name": "link",
          "type": "string"
        },
        {
          "indexed": false,
          "internalType": "uint256",
          "name": "totalTipped",
          "type": "uint256"
        }
      ],
      "name": "SongAdded",
      "type": "event"
    },
    {
      "anonymous": false,
      "inputs": [
        {
          "indexed": false,
          "internalType": "uint256",
          "name": "id",
          "type": "uint256"
        },
        {
          "indexed": false,
          "internalType": "address",
          "name": "artist",
          "type": "address"
        },
        {
          "indexed": false,
          "internalType": "uint256",
          "name": "totalTipped",
          "type": "uint256"
        }
      ],
      "name": "Tipped",
      "type": "event"
    },
    {
      "inputs": [
        {
          "internalType": "uint256",
          "name": "",
          "type": "uint256"
        }
      ],
      "name": "Songs",
      "outputs": [
        {
          "internalType": "uint256",
          "name": "id",
          "type": "uint256"
        },
        {
          "internalType": "string",
          "name": "name",
          "type": "string"
        },
        {
          "internalType": "address payable",
          "name": "artist",
          "type": "address"
        },
        {
          "internalType": "string",
          "name": "link",
          "type": "string"
        },
        {
          "internalType": "uint256",
          "name": "totalTipped",
          "type": "uint256"
        }
      ],
      "stateMutability": "view",
      "type": "function"
    },
    {
      "inputs": [
        {
          "internalType": "address",
          "name": "",
          "type": "address"
        },
        {
          "internalType": "uint256",
          "name": "",
          "type": "uint256"
        }
      ],
      "name": "songsByArtist",
      "outputs": [
        {
          "internalType": "uint256",
          "name": "",
          "type": "uint256"
        }
      ],
      "stateMutability": "view",
      "type": "function"
    },
    {
      "inputs": [
        {
          "internalType": "string",
          "name": "_name",
          "type": "string"
        },
        {
          "internalType": "string",
          "name": "_link",
          "type": "string"
        }
      ],
      "name": "addSong",
      "outputs": [],
      "stateMutability": "nonpayable",
      "type": "function"
    },
    {
      "inputs": [
        {
          "internalType": "uint256",
          "name": "_id",
          "type": "uint256"
        }
      ],
      "name": "tipArtist",
      "outputs": [],
      "stateMutability": "payable",
      "type": "function"
    }
  ],
  "bytecode": "0x60806040526000805534801561001457600080fd5b50610a6d806100246000396000f3fe60806040526004361061005b577c010000000000000000000000000000000000000000000000000000000060003504630310cf298114610060578063955de0fd14610093578063beaf69b5146100b5578063d37f9750146100e6575b600080fd5b34801561006c57600080fd5b5061008061007b36600461066a565b6100f9565b6040519081526020015b60405180910390f35b34801561009f57600080fd5b506100b36100ae36600461075e565b61012a565b005b3480156100c157600080fd5b506100d56100d03660046107c2565b61024c565b60405161008a959493929190610821565b6100b36100f43660046107c2565b610399565b6002602052816000526040600020818154811061011557600080fd5b90600052602060002001600091509150505481565b6000805490806101398361089d565b90915550506040805160a0810182526000805480835260208084018781523385870152606085018790526080850184905291835260019081905293909120825181559051919290919082019061018f9082610958565b50604082015160028201805473ffffffffffffffffffffffffffffffffffffffff1916600160a060020a03909216919091179055606082015160038201906101d79082610958565b5060809190910151600490910155336000818152600260209081526040808320835481546001810183559185529284200191909155815490517f50422c134045c7c05b43a52fe77c6cad6f7c40d805264b46de4974fb78768f1d93610240938792879190610821565b60405180910390a15050565b60016020819052600091825260409091208054918101805461026d906108b6565b80601f0160208091040260200160405190810160405280929190818152602001828054610299906108b6565b80156102e65780601f106102bb576101008083540402835291602001916102e6565b820191906000526020600020905b8154815290600101906020018083116102c957829003601f168201915b50505060028401546003850180549495600160a060020a03909216949193509150610310906108b6565b80601f016020809104026020016040519081016040528092919081815260200182805461033c906108b6565b80156103895780601f1061035e57610100808354040283529160200191610389565b820191906000526020600020905b81548152906001019060200180831161036c57829003601f168201915b5050505050908060040154905085565b6000811180156103ab57506000548111155b6103b457600080fd5b600081815260016020526040902060020154600160a060020a031633036103da57600080fd5b600034116103e757600080fd5b6000818152600160208181526040808420815160a08101909252805482529283018054919392840191610419906108b6565b80601f0160208091040260200160405190810160405280929190818152602001828054610445906108b6565b80156104925780601f1061046757610100808354040283529160200191610492565b820191906000526020600020905b81548152906001019060200180831161047557829003601f168201915b50505091835250506002820154600160a060020a031660208201526003820180546040909201916104c2906108b6565b80601f01602080910402602001604051908101604052809291908181526020018280546104ee906108b6565b801561053b5780601f106105105761010080835404028352916020019161053b565b820191906000526020600020905b81548152906001019060200180831161051e57829003601f168201915b505050918352505060049190910154602090910152604080820151905191925090600160a060020a038216903480156108fc02916000818181858888f1935050505015801561058e573d6000803e3d6000fd5b5034826080015161059f9190610a1e565b6080830152600083815260016020818152604090922084518155918401518492918201906105cd9082610958565b50604082015160028201805473ffffffffffffffffffffffffffffffffffffffff1916600160a060020a03909216919091179055606082015160038201906106159082610958565b50608091820151600491909101558201516040805185815233602082015280820192909252517f9bb057a11c3457c55cb17f11a38392348805c6ccb84a9b7e8d9c42c694a7882b9181900360600190a1505050565b6000806040838503121561067d57600080fd5b8235600160a060020a038116811461069457600080fd5b946020939093013593505050565b7f4e487b7100000000000000000000000000000000000000000000000000000000600052604160045260246000fd5b600082601f8301126106e257600080fd5b813567ffffffffffffffff808211156106fd576106fd6106a2565b604051601f8301601f19908116603f01168101908282118183101715610725576107256106a2565b8160405283815286602085880101111561073e57600080fd5b836020870160208301376000602085830101528094505050505092915050565b6000806040838503121561077157600080fd5b823567ffffffffffffffff8082111561078957600080fd5b610795868387016106d1565b935060208501359150808211156107ab57600080fd5b506107b8858286016106d1565b9150509250929050565b6000602082840312156107d457600080fd5b5035919050565b6000815180845260005b81811015610801576020818501810151868301820152016107e5565b506000602082860101526020601f19601f83011685010191505092915050565b85815260a06020820152600061083a60a08301876107db565b600160a060020a0386166040840152828103606084015261085b81866107db565b9150508260808301529695505050505050565b7f4e487b7100000000000000000000000000000000000000000000000000000000600052601160045260246000fd5b6000600182016108af576108af61086e565b5060010190565b6002810460018216806108ca57607f821691505b602082108103610903577f4e487b7100000000000000000000000000000000000000000000000000000000600052602260045260246000fd5b50919050565b601f821115610953576000818152602081206020601f860104810160208610156109305750805b6020601f860104820191505b8181101561094f5782815560010161093c565b5050505b505050565b815167ffffffffffffffff811115610972576109726106a2565b6109868161098084546108b6565b84610909565b602080601f8311600181146109bf57600084156109a35750858301515b60028086026008870290910a600019041982161786555061094f565b600085815260208120601f198616915b828110156109ee578886015182559484019460019091019084016109cf565b5085821015610a0e57878501516008601f88160260020a60001904191681555b5050505050600202600101905550565b80820180821115610a3157610a3161086e565b9291505056fea2646970667358221220face4a445e93739d86e15a85cf7a88b62271ff358c9d63f476406774714c562264736f6c63430008150033",
  "immutableReferences": {},
  "source": "// SPDX-License-Identifier: MIT\r\npragma solidity ^0.8.21;\r\n\r\ncontract SongSquare{\r\n    uint256 songCount = 0;\r\n    \r\n    struct Song{\r\n        uint id;\r\n        string name;\r\n        address payable artist;\r\n        string link;\r\n        uint totalTipped;\r\n    }\r\n    \r\n    mapping(uint256=>Song) public Songs;\r\n    mapping(address=>uint256[]) public songsByArtist;\r\n\r\n    event SongAdded(\r\n        uint id,\r\n        string name,\r\n        address artist,\r\n        string link,\r\n        uint totalTipped\r\n    );\r\n\r\n    event Tipped(\r\n        uint id,\r\n        address artist,\r\n        uint totalTipped\r\n    );\r\n\r\n    constructor(){\r\n    }\r\n\r\n    function addSong(string memory _name, string memory _link) external {\r\n        songCount++;\r\n        Songs[songCount] = Song(songCount, _name, payable(msg.sender), _link, 0);\r\n        songsByArtist[msg.sender].push(songCount);\r\n        emit SongAdded(songCount,_name,msg.sender,_link,0);\r\n    }\r\n\r\n    function tipArtist(uint256 _id) payable external {\r\n        require(_id>0 && _id <= songCount);\r\n        require(msg.sender != Songs[_id].artist);\r\n        require(msg.value>0);\r\n\r\n        Song memory _song = Songs[_id];\r\n        address payable _artist = _song.artist;\r\n        _artist.transfer(msg.value);\r\n        _song.totalTipped = _song.totalTipped + msg.value;\r\n        Songs[_id] = _song;\r\n        emit Tipped(_id,msg.sender,_song.totalTipped);\r\n    }\r\n}",
  "sourcePath": "D:\\SongSquare\\backend\\contracts\\SongSquare.sol",
  "compiler": {
    "name": "solc",
    "version": "0.8.21+commit.d9974bed.Emscripten.clang"
  },
  "schemaVersion": "3.4.16",
  "updatedAt": "2023-11-03T04:24:04.001Z",
  "devdoc": {
    "kind": "dev",
    "methods": {},
    "version": 1
  },
  "userdoc": {
    "kind": "user",
    "methods": {},
    "version": 1
  }
}