{
  "contractName": "SongSquare",
  "abi": [
    {
      "inputs": [],
      "stateMutability": "nonpayable",
      "type": "constructor"
    },
    {
      "anonymous": false,
      "inputs": [
        {
          "indexed": false,
          "internalType": "uint256",
          "name": "id",
          "type": "uint256"
        },
        {
          "indexed": false,
          "internalType": "string",
          "name": "name",
          "type": "string"
        },
        {
          "indexed": false,
          "internalType": "address",
          "name": "artist",
          "type": "address"
        },
        {
          "indexed": false,
          "internalType": "string",
          "name": "link",
          "type": "string"
        },
        {
          "indexed": false,
          "internalType": "uint256",
          "name": "totalTipped",
          "type": "uint256"
        }
      ],
      "name": "SongAdded",
      "type": "event"
    },
    {
      "anonymous": false,
      "inputs": [
        {
          "indexed": false,
          "internalType": "uint256",
          "name": "id",
          "type": "uint256"
        },
        {
          "indexed": false,
          "internalType": "address",
          "name": "artist",
          "type": "address"
        },
        {
          "indexed": false,
          "internalType": "uint256",
          "name": "totalTipped",
          "type": "uint256"
        }
      ],
      "name": "Tipped",
      "type": "event"
    },
    {
      "inputs": [
        {
          "internalType": "uint256",
          "name": "",
          "type": "uint256"
        }
      ],
      "name": "Songs",
      "outputs": [
        {
          "internalType": "uint256",
          "name": "id",
          "type": "uint256"
        },
        {
          "internalType": "string",
          "name": "name",
          "type": "string"
        },
        {
          "internalType": "address payable",
          "name": "artist",
          "type": "address"
        },
        {
          "internalType": "string",
          "name": "link",
          "type": "string"
        },
        {
          "internalType": "uint256",
          "name": "totalTipped",
          "type": "uint256"
        }
      ],
      "stateMutability": "view",
      "type": "function",
      "constant": true
    },
    {
      "inputs": [],
      "name": "songCount",
      "outputs": [
        {
          "internalType": "uint256",
          "name": "",
          "type": "uint256"
        }
      ],
      "stateMutability": "view",
      "type": "function",
      "constant": true
    },
    {
      "inputs": [
        {
          "internalType": "address",
          "name": "",
          "type": "address"
        },
        {
          "internalType": "uint256",
          "name": "",
          "type": "uint256"
        }
      ],
      "name": "songsByArtist",
      "outputs": [
        {
          "internalType": "uint256",
          "name": "",
          "type": "uint256"
        }
      ],
      "stateMutability": "view",
      "type": "function",
      "constant": true
    },
    {
      "inputs": [
        {
          "internalType": "string",
          "name": "_name",
          "type": "string"
        },
        {
          "internalType": "string",
          "name": "_link",
          "type": "string"
        }
      ],
      "name": "addSong",
      "outputs": [],
      "stateMutability": "nonpayable",
      "type": "function"
    },
    {
      "inputs": [
        {
          "internalType": "uint256",
          "name": "_id",
          "type": "uint256"
        }
      ],
      "name": "tipArtist",
      "outputs": [],
      "stateMutability": "payable",
      "type": "function",
      "payable": true
    }
  ],
  "bytecode": "0x60806040526000805534801561001457600080fd5b50610a8e806100246000396000f3fe608060405260043610610066577c010000000000000000000000000000000000000000000000000000000060003504630310cf29811461006b578063931a889b1461009e578063955de0fd146100b4578063beaf69b5146100d6578063d37f975014610107575b600080fd5b34801561007757600080fd5b5061008b61008636600461068b565b61011a565b6040519081526020015b60405180910390f35b3480156100aa57600080fd5b5061008b60005481565b3480156100c057600080fd5b506100d46100cf36600461077f565b61014b565b005b3480156100e257600080fd5b506100f66100f13660046107e3565b61026d565b604051610095959493929190610842565b6100d46101153660046107e3565b6103ba565b6002602052816000526040600020818154811061013657600080fd5b90600052602060002001600091509150505481565b60008054908061015a836108be565b90915550506040805160a081018252600080548083526020808401878152338587015260608501879052608085018490529183526001908190529390912082518155905191929091908201906101b09082610979565b50604082015160028201805473ffffffffffffffffffffffffffffffffffffffff1916600160a060020a03909216919091179055606082015160038201906101f89082610979565b5060809190910151600490910155336000818152600260209081526040808320835481546001810183559185529284200191909155815490517f50422c134045c7c05b43a52fe77c6cad6f7c40d805264b46de4974fb78768f1d93610261938792879190610842565b60405180910390a15050565b60016020819052600091825260409091208054918101805461028e906108d7565b80601f01602080910402602001604051908101604052809291908181526020018280546102ba906108d7565b80156103075780601f106102dc57610100808354040283529160200191610307565b820191906000526020600020905b8154815290600101906020018083116102ea57829003601f168201915b50505060028401546003850180549495600160a060020a03909216949193509150610331906108d7565b80601f016020809104026020016040519081016040528092919081815260200182805461035d906108d7565b80156103aa5780601f1061037f576101008083540402835291602001916103aa565b820191906000526020600020905b81548152906001019060200180831161038d57829003601f168201915b5050505050908060040154905085565b6000811180156103cc57506000548111155b6103d557600080fd5b600081815260016020526040902060020154600160a060020a031633036103fb57600080fd5b6000341161040857600080fd5b6000818152600160208181526040808420815160a0810190925280548252928301805491939284019161043a906108d7565b80601f0160208091040260200160405190810160405280929190818152602001828054610466906108d7565b80156104b35780601f10610488576101008083540402835291602001916104b3565b820191906000526020600020905b81548152906001019060200180831161049657829003601f168201915b50505091835250506002820154600160a060020a031660208201526003820180546040909201916104e3906108d7565b80601f016020809104026020016040519081016040528092919081815260200182805461050f906108d7565b801561055c5780601f106105315761010080835404028352916020019161055c565b820191906000526020600020905b81548152906001019060200180831161053f57829003601f168201915b505050918352505060049190910154602090910152604080820151905191925090600160a060020a038216903480156108fc02916000818181858888f193505050501580156105af573d6000803e3d6000fd5b503482608001516105c09190610a3f565b6080830152600083815260016020818152604090922084518155918401518492918201906105ee9082610979565b50604082015160028201805473ffffffffffffffffffffffffffffffffffffffff1916600160a060020a03909216919091179055606082015160038201906106369082610979565b50608091820151600491909101558201516040805185815233602082015280820192909252517f9bb057a11c3457c55cb17f11a38392348805c6ccb84a9b7e8d9c42c694a7882b9181900360600190a1505050565b6000806040838503121561069e57600080fd5b8235600160a060020a03811681146106b557600080fd5b946020939093013593505050565b7f4e487b7100000000000000000000000000000000000000000000000000000000600052604160045260246000fd5b600082601f83011261070357600080fd5b813567ffffffffffffffff8082111561071e5761071e6106c3565b604051601f8301601f19908116603f01168101908282118183101715610746576107466106c3565b8160405283815286602085880101111561075f57600080fd5b836020870160208301376000602085830101528094505050505092915050565b6000806040838503121561079257600080fd5b823567ffffffffffffffff808211156107aa57600080fd5b6107b6868387016106f2565b935060208501359150808211156107cc57600080fd5b506107d9858286016106f2565b9150509250929050565b6000602082840312156107f557600080fd5b5035919050565b6000815180845260005b8181101561082257602081850181015186830182015201610806565b506000602082860101526020601f19601f83011685010191505092915050565b85815260a06020820152600061085b60a08301876107fc565b600160a060020a0386166040840152828103606084015261087c81866107fc565b9150508260808301529695505050505050565b7f4e487b7100000000000000000000000000000000000000000000000000000000600052601160045260246000fd5b6000600182016108d0576108d061088f565b5060010190565b6002810460018216806108eb57607f821691505b602082108103610924577f4e487b7100000000000000000000000000000000000000000000000000000000600052602260045260246000fd5b50919050565b601f821115610974576000818152602081206020601f860104810160208610156109515750805b6020601f860104820191505b818110156109705782815560010161095d565b5050505b505050565b815167ffffffffffffffff811115610993576109936106c3565b6109a7816109a184546108d7565b8461092a565b602080601f8311600181146109e057600084156109c45750858301515b60028086026008870290910a6000190419821617865550610970565b600085815260208120601f198616915b82811015610a0f578886015182559484019460019091019084016109f0565b5085821015610a2f57878501516008601f88160260020a60001904191681555b5050505050600202600101905550565b80820180821115610a5257610a5261088f565b9291505056fea2646970667358221220696d7e5cdf9136e560053f3cedfb1864cd116a630a020db754393ae23ca6896164736f6c63430008150033",
  "immutableReferences": {},
  "source": "// SPDX-License-Identifier: MIT\r\npragma solidity ^0.8.0;\r\n\r\ncontract SongSquare{\r\n    uint256 public songCount= 0;\r\n    \r\n    struct Song{\r\n        uint id;\r\n        string name;\r\n        address payable artist;\r\n        string link;\r\n        uint totalTipped;\r\n    }\r\n    \r\n    mapping(uint256=>Song) public Songs;\r\n    mapping(address=>uint256[]) public songsByArtist;\r\n\r\n    event SongAdded(\r\n        uint id,\r\n        string name,\r\n        address artist,\r\n        string link,\r\n        uint totalTipped\r\n    );\r\n\r\n    event Tipped(\r\n        uint id,\r\n        address artist,\r\n        uint totalTipped\r\n    );\r\n\r\n    constructor(){\r\n    }\r\n\r\n    function addSong(string memory _name, string memory _link) external {\r\n        songCount++;\r\n        Songs[songCount] = Song(songCount, _name, payable(msg.sender), _link, 0);\r\n        songsByArtist[msg.sender].push(songCount);\r\n        emit SongAdded(songCount,_name,msg.sender,_link,0);\r\n    }\r\n\r\n    function tipArtist(uint256 _id) payable external {\r\n        require(_id>0 && _id <= songCount);\r\n        require(msg.sender != Songs[_id].artist);\r\n        require(msg.value>0);\r\n\r\n        Song memory _song = Songs[_id];\r\n        address payable _artist = _song.artist;\r\n        _artist.transfer(msg.value);\r\n        _song.totalTipped = _song.totalTipped + msg.value;\r\n        Songs[_id] = _song;\r\n        emit Tipped(_id,msg.sender,_song.totalTipped);\r\n    }\r\n}",
  "sourcePath": "D:\\Desktop\\ByteSynergy\\SongSquare\\backend\\contracts\\SongSquare.sol",
  "compiler": {
    "name": "solc",
    "version": "0.8.21+commit.d9974bed.Emscripten.clang"
  },
  "schemaVersion": "3.4.16",
  "updatedAt": "2023-11-20T13:59:15.101Z",
  "networkType": "ethereum",
  "devdoc": {
    "kind": "dev",
    "methods": {},
    "version": 1
  },
  "userdoc": {
    "kind": "user",
    "methods": {},
    "version": 1
  }
}